:1000000002008F7590EFE4FC20900EEC25E025E0D7
:10001000247FF582E43400803120910EEC25E02528
:10002000E02480F582E43400802020920EEC25E06C
:1000300025E02481F582E43400800F209312EC2522
:10004000E025E02482F582E43400F583E493F58032
:100050007F057E0012006AE590440F25E0FF440111
:10006000F5900CEC640470A08099EF1F70011E14D1
:100070004E600BE4FDEDC3947D50EF0D80F722C080
:10008000F9A4B0999282F880908883C6A1868E7870
:0B0090007FE4F6D8FD75810702000335
:00000001FF
