:1000000002013BE709F608DFFA8046E709F208DF5C
:10001000FA803E88828C83E709F0A3DFFA8032E31E
:1000200009F608DFFA8078E309F208DFFA807088C1
:10003000828C83E309F0A3DFFA806489828A83E0FB
:10004000A3F608DFFA805889828A83E0A3F208DFEA
:10005000FA804C80D280FA80C680D4806980F28099
:1000600033801080A680EA809A80A880DA80E280BF
:10007000CA803389828A83ECFAE493A3C8C582C814
:10008000CCC583CCF0A3C8C582C8CCC583CCDFE97E
:10009000DEE7800D89828A83E493A3F608DFF9EC1A
:1000A000FAA9F0EDFB2289828A83ECFAE0A3C8C5A5
:1000B00082C8CCC583CCF0A3C8C582C8CCC583CCCC
:1000C000DFEADEE880DB89828A83E493A3F208DF3B
:1000D000F980CC88F0EF60010E4E60C388F0ED240B
:1000E00002B4040050B9F582EB2402B4040050AF0E
:1000F00023234582239000537378087C007D007B86
:10010000FF7A0179477E007F0A1200D3E4FCAF0436
:100110000C74082FF8E6F5807FF47E01120126BCEE
:100120000AECE4FC80E8EF1F70011E144E600BE443
:10013000FDEDC3947D50EF0D80F722787FE4F6D873
:10014000FD7581110200F9C0A4998280F9B092F87E
:01015000901E
:00000001FF
