:100000000200D7FEFFFEFF8003FC7FFABFF6DFCEC3
:10001000E73EF9F01FFFBFFF7F0001FEFFFEFFFA82
:10002000FFFDFFDEFBEF7BEF7707FFF401EFDFEF74
:10003000DFC603ABDF6FDFEC01EFDFEFDFEFDFEFFA
:10004000DFEFDFFBDFFBEFFBEFFBFF0001FB7FFBE5
:1000500077FB77FB6FF75FF73FEF7DEE7DDD7DBBD5
:10006000817FFFE4F508E4F509E4FC8C90E508C421
:100070003354E02404F582E43400F58375F002EC97
:100080001200E3E493F4F580E508C43354E024035C
:10009000F582E43400F58375F002EC1200E3E4939A
:1000A000F4F5A07F647E001200C20CBC10BD0509EF
:1000B000E509C3940540B20508E508C3940340A6CA
:1000C00080A1EF1F70011E144E600BE4FDEDC39480
:1000D0007D50EF0D80F722787FE4F6D8FD75810919
:0F00E000020063A42582F582E5F03583F58322C3
:00000001FF
